{
  "transactions": [
    {
      "hash": "0x39644f4023aca35429de142a34766cea5b3c7dd2b895b20f3045ab9ac0e09f23",
      "transactionType": "CALL",
      "contractName": null,
      "contractAddress": "0x81394c811682ea1af8aa9f4cf7df63cf107265ce",
      "function": "mint(address,uint256)",
      "arguments": [
        "0xb2dE751D22Adfb449e95DA3c1e8836C6c61B537d",
        "1000000000000000000000"
      ],
      "transaction": {
        "from": "0xbeddb491255cc57e07ae15acc1caeac1df1f0e39",
        "to": "0x81394c811682ea1af8aa9f4cf7df63cf107265ce",
        "gas": "0x1807e",
        "value": "0x0",
        "input": "0x40c10f19000000000000000000000000b2de751d22adfb449e95da3c1e8836c6c61b537d00000000000000000000000000000000000000000000003635c9adc5dea00000",
        "nonce": "0x5c",
        "chainId": "0xaa36a7"
      },
      "additionalContracts": [],
      "isFixedGasLimit": false
    },
    {
      "hash": "0xa60c3797e594777a80b0d5d4d4ac09dc52bb74d11db2a60b32e4ea4f35ba40a5",
      "transactionType": "CALL",
      "contractName": null,
      "contractAddress": "0x81394c811682ea1af8aa9f4cf7df63cf107265ce",
      "function": "mint(address,uint256)",
      "arguments": [
        "0x2222222222222222222222222222222222222222",
        "1000000000000000000000"
      ],
      "transaction": {
        "from": "0xbeddb491255cc57e07ae15acc1caeac1df1f0e39",
        "to": "0x81394c811682ea1af8aa9f4cf7df63cf107265ce",
        "gas": "0x1356c",
        "value": "0x0",
        "input": "0x40c10f19000000000000000000000000222222222222222222222222222222222222222200000000000000000000000000000000000000000000003635c9adc5dea00000",
        "nonce": "0x5d",
        "chainId": "0xaa36a7"
      },
      "additionalContracts": [],
      "isFixedGasLimit": false
    },
    {
      "hash": "0x2cbfab63735009537ccde6137016f81aaac7dcde50e7348c4cf40d9a348eb0d5",
      "transactionType": "CALL",
      "contractName": null,
      "contractAddress": "0x3f861374e606b0626d5fee518571bfe51bcc08d0",
      "function": "mint(address,uint256)",
      "arguments": [
        "0xb2dE751D22Adfb449e95DA3c1e8836C6c61B537d",
        "1000000000000000000000"
      ],
      "transaction": {
        "from": "0xbeddb491255cc57e07ae15acc1caeac1df1f0e39",
        "to": "0x3f861374e606b0626d5fee518571bfe51bcc08d0",
        "gas": "0x1807e",
        "value": "0x0",
        "input": "0x40c10f19000000000000000000000000b2de751d22adfb449e95da3c1e8836c6c61b537d00000000000000000000000000000000000000000000003635c9adc5dea00000",
        "nonce": "0x5e",
        "chainId": "0xaa36a7"
      },
      "additionalContracts": [],
      "isFixedGasLimit": false
    },
    {
      "hash": "0x9a06697c270a0c58126f3630805b27013870549a36fbeaf75966d8e39020ab2c",
      "transactionType": "CALL",
      "contractName": null,
      "contractAddress": "0x3f861374e606b0626d5fee518571bfe51bcc08d0",
      "function": "mint(address,uint256)",
      "arguments": [
        "0x2222222222222222222222222222222222222222",
        "1000000000000000000000"
      ],
      "transaction": {
        "from": "0xbeddb491255cc57e07ae15acc1caeac1df1f0e39",
        "to": "0x3f861374e606b0626d5fee518571bfe51bcc08d0",
        "gas": "0x1356c",
        "value": "0x0",
        "input": "0x40c10f19000000000000000000000000222222222222222222222222222222222222222200000000000000000000000000000000000000000000003635c9adc5dea00000",
        "nonce": "0x5f",
        "chainId": "0xaa36a7"
      },
      "additionalContracts": [],
      "isFixedGasLimit": false
    }
  ],
  "receipts": [
    {
      "status": "0x1",
      "cumulativeGasUsed": "0x37f7465",
      "logs": [
        {
          "address": "0x81394c811682ea1af8aa9f4cf7df63cf107265ce",
          "topics": [
            "0xddf252ad1be2c89b69c2b068fc378daa952ba7f163c4a11628f55a4df523b3ef",
            "0x0000000000000000000000000000000000000000000000000000000000000000",
            "0x000000000000000000000000b2de751d22adfb449e95da3c1e8836c6c61b537d"
          ],
          "data": "0x00000000000000000000000000000000000000000000003635c9adc5dea00000",
          "blockHash": "0x12c515316628474d109b8c0d064b8211fa62ab0be0aac117af5534c31b3b2ff2",
          "blockNumber": "0x92102e",
          "blockTimestamp": "0x690c8370",
          "transactionHash": "0x39644f4023aca35429de142a34766cea5b3c7dd2b895b20f3045ab9ac0e09f23",
          "transactionIndex": "0x187",
          "logIndex": "0x108",
          "removed": false
        }
      ],
      "logsBloom": "0x00000000000000000000000010000000000000000000000000000000000000000000000000002000000000000000000000000000000000000000000000000000000000000020000000000008000000000000000000000000000000000000000000000000020000000000000000000800000000000000400000000010000000000000000000000000000000000000000000200000000000000000000000000000000000000010000000000000000000000000000000000000000000000000000000000002000000000000000000000000000000000000000000000000000020000000000000000000000000000000000000000000000000000000000000000000",
      "type": "0x2",
      "transactionHash": "0x39644f4023aca35429de142a34766cea5b3c7dd2b895b20f3045ab9ac0e09f23",
      "transactionIndex": "0x187",
      "blockHash": "0x12c515316628474d109b8c0d064b8211fa62ab0be0aac117af5534c31b3b2ff2",
      "blockNumber": "0x92102e",
      "gasUsed": "0x1165f",
      "effectiveGasPrice": "0xb44a",
      "from": "0xbeddb491255cc57e07ae15acc1caeac1df1f0e39",
      "to": "0x81394c811682ea1af8aa9f4cf7df63cf107265ce",
      "contractAddress": null
    },
    {
      "status": "0x1",
      "cumulativeGasUsed": "0x3869004",
      "logs": [
        {
          "address": "0x81394c811682ea1af8aa9f4cf7df63cf107265ce",
          "topics": [
            "0xddf252ad1be2c89b69c2b068fc378daa952ba7f163c4a11628f55a4df523b3ef",
            "0x0000000000000000000000000000000000000000000000000000000000000000",
            "0x0000000000000000000000002222222222222222222222222222222222222222"
          ],
          "data": "0x00000000000000000000000000000000000000000000003635c9adc5dea00000",
          "blockHash": "0x12c515316628474d109b8c0d064b8211fa62ab0be0aac117af5534c31b3b2ff2",
          "blockNumber": "0x92102e",
          "blockTimestamp": "0x690c8370",
          "transactionHash": "0xa60c3797e594777a80b0d5d4d4ac09dc52bb74d11db2a60b32e4ea4f35ba40a5",
          "transactionIndex": "0x193",
          "logIndex": "0x10e",
          "removed": false
        }
      ],
      "logsBloom": "0x00000000000000000000000010000000000000000000000000000000000000000000000000002000000000000000000000080000000000000000000020000000000000000000000000000008000000000000000000000000000000000000000000000000020000000000000000000800000000000000000000000010000000000000000000000000000000000000000000000000000000000000000000000000000000000010000000000000000000000000000000000000000000000000000000000002000000000000000000000000000000000000000000000000000020000000000000000000000000000000000000000800000000000000000000000000",
      "type": "0x2",
      "transactionHash": "0xa60c3797e594777a80b0d5d4d4ac09dc52bb74d11db2a60b32e4ea4f35ba40a5",
      "transactionIndex": "0x193",
      "blockHash": "0x12c515316628474d109b8c0d064b8211fa62ab0be0aac117af5534c31b3b2ff2",
      "blockNumber": "0x92102e",
      "gasUsed": "0xd393",
      "effectiveGasPrice": "0xb44a",
      "from": "0xbeddb491255cc57e07ae15acc1caeac1df1f0e39",
      "to": "0x81394c811682ea1af8aa9f4cf7df63cf107265ce",
      "contractAddress": null
    },
    {
      "status": "0x1",
      "cumulativeGasUsed": "0x387a663",
      "logs": [
        {
          "address": "0x3f861374e606b0626d5fee518571bfe51bcc08d0",
          "topics": [
            "0xddf252ad1be2c89b69c2b068fc378daa952ba7f163c4a11628f55a4df523b3ef",
            "0x0000000000000000000000000000000000000000000000000000000000000000",
            "0x000000000000000000000000b2de751d22adfb449e95da3c1e8836c6c61b537d"
          ],
          "data": "0x00000000000000000000000000000000000000000000003635c9adc5dea00000",
          "blockHash": "0x12c515316628474d109b8c0d064b8211fa62ab0be0aac117af5534c31b3b2ff2",
          "blockNumber": "0x92102e",
          "blockTimestamp": "0x690c8370",
          "transactionHash": "0x2cbfab63735009537ccde6137016f81aaac7dcde50e7348c4cf40d9a348eb0d5",
          "transactionIndex": "0x194",
          "logIndex": "0x10f",
          "removed": false
        }
      ],
      "logsBloom": "0x00000000000000000000000000000000000000000000000000000000000000000000000000000000000000000000000000000000000000000000000000000000000000000020000000000008000000000000000000000000000000000000000000000000020000000000000000000800000000020000400000000010000000000000000000000000000000000000000000200000000000000000000000000000000000000000000000000000000000000000000000000000000000000000000000000002000000000000000000000000000000000000000000000000000020000000000000000040000000000000000800000000000000000000000000000000",
      "type": "0x2",
      "transactionHash": "0x2cbfab63735009537ccde6137016f81aaac7dcde50e7348c4cf40d9a348eb0d5",
      "transactionIndex": "0x194",
      "blockHash": "0x12c515316628474d109b8c0d064b8211fa62ab0be0aac117af5534c31b3b2ff2",
      "blockNumber": "0x92102e",
      "gasUsed": "0x1165f",
      "effectiveGasPrice": "0xb44a",
      "from": "0xbeddb491255cc57e07ae15acc1caeac1df1f0e39",
      "to": "0x3f861374e606b0626d5fee518571bfe51bcc08d0",
      "contractAddress": null
    },
    {
      "status": "0x1",
      "cumulativeGasUsed": "0x38879f6",
      "logs": [
        {
          "address": "0x3f861374e606b0626d5fee518571bfe51bcc08d0",
          "topics": [
            "0xddf252ad1be2c89b69c2b068fc378daa952ba7f163c4a11628f55a4df523b3ef",
            "0x0000000000000000000000000000000000000000000000000000000000000000",
            "0x0000000000000000000000002222222222222222222222222222222222222222"
          ],
          "data": "0x00000000000000000000000000000000000000000000003635c9adc5dea00000",
          "blockHash": "0x12c515316628474d109b8c0d064b8211fa62ab0be0aac117af5534c31b3b2ff2",
          "blockNumber": "0x92102e",
          "blockTimestamp": "0x690c8370",
          "transactionHash": "0x9a06697c270a0c58126f3630805b27013870549a36fbeaf75966d8e39020ab2c",
          "transactionIndex": "0x195",
          "logIndex": "0x110",
          "removed": false
        }
      ],
      "logsBloom": "0x00000000000000000000000000000000000000000000000000000000000000000000000000000000000000000000000000080000000000000000000020000000000000000000000000000008000000000000000000000000000000000000000000000000020000000000000000000800000000020000000000000010000000000000000000000000000000000000000000000000000000000000000000000000000000000000000000000000000000000000000000000000000000000000000000000002000000000000000000000000000000000000000000000000000020000000000000000040000000000000000800000800000000000000000000000000",
      "type": "0x2",
      "transactionHash": "0x9a06697c270a0c58126f3630805b27013870549a36fbeaf75966d8e39020ab2c",
      "transactionIndex": "0x195",
      "blockHash": "0x12c515316628474d109b8c0d064b8211fa62ab0be0aac117af5534c31b3b2ff2",
      "blockNumber": "0x92102e",
      "gasUsed": "0xd393",
      "effectiveGasPrice": "0xb44a",
      "from": "0xbeddb491255cc57e07ae15acc1caeac1df1f0e39",
      "to": "0x3f861374e606b0626d5fee518571bfe51bcc08d0",
      "contractAddress": null
    }
  ],
  "libraries": [],
  "pending": [],
  "returns": {},
  "timestamp": 1762427760666,
  "chain": 11155111,
  "commit": null
}